:020000040800F2
:10000000B01C0020D9010008E1010008E30100084C
:10001000E5010008E7010008E90100080000000010
:10002000000000000000000000000000EB010008DC
:10003000ED01000800000000EF010008490C000875
:10004000F3010008F3010008F3010008F3010008C0
:10005000F3010008F3010008F3010008F3010008B0
:10006000F3010008F3010008F3010008F3010008A0
:10007000F3010008F3010008F3010008F301000890
:10008000F3010008F3010008F3010008F301000880
:10009000F3010008F3010008F3010008F301000870
:1000A000F3010008F3010008F3010008F301000860
:1000B000F3010008F3010008F3010008F301000850
:1000C000F3010008F3010008F3010008F301000840
:1000D000F3010008F3010008F3010008F301000830
:1000E000F3010008F3010008F3010008F301000820
:1000F000F3010008F3010008F3010008F301000810
:10010000F3010008F3010008F3010008F3010008FF
:10011000F3010008F3010008F3010008F3010008EF
:10012000F3010008F3010008F3010008F3010008DF
:1001300000F002F800F040F80AA090E8000C8244B9
:100140008344AAF10107DA4501D100F035F8AFF296
:10015000090EBAE80F0013F0010F18BFFB1A43F0A5
:1001600001031847F023000010240000103A24BFB8
:1001700078C878C1FAD8520724BF30C830C144BF0C
:1001800004680C607047000000230024002500264E
:10019000103A28BF78C1FBD8520728BF30C148BFEA
:1001A0000B6070471FB59DE8030000F031F900F0C7
:1001B00069F81FBD10B510BD00F0E4F81146FFF757
:1001C000F1FF01F075FC00F080F903B4FFF7F2FFD6
:1001D00003BC00F0A7F90000094880470948004720
:1001E000FEE7FEE7FEE7FEE7FEE7FEE7FEE7FEE7E7
:1001F000FEE7FEE704480549054A064B7047000044
:10020000510C000831010008B0080020B01C00208B
:10021000B0180020B018002010B5203AC0F00B80B4
:10022000B1E81850203AA0E81850B1E81850A0E8FA
:100230001850BFF4F5AF5FEA027C24BFB1E8185054
:10024000A0E8185044BF18C918C0BDE810405FEAC4
:10025000827C24BF51F8043B40F8043B08BF704740
:10026000D20728BF31F8023B48BF11F8012B28BF45
:1002700020F8023B48BF00F8012B704770477047D9
:100280007047000070B5064C7C44064D7D4403E089
:10029000206820448047241DAC42F9D170BD000085
:1002A000E8220000E822000000487047840800208F
:1002B00070B5064600F08CF8056806F10B0020F0DA
:1002C0000704B4429CBF002070BD2B466A68BAB1D7
:1002D0001068A04210D304F1080188423CBF506866
:1002E000586007D35168101941601168091B0160FB
:1002F00058601460101D70BD13465268002AE7D183
:100300002146284600F070F80028DED170BDAFF31A
:10031000008010B500F00DF8016919B100220261EA
:10032000884701E08068804700F0D5F810B500F0FC
:10033000D2F870B500F050F804680546A4B9202042
:10034000FFF7B6FF040011D0094900202C60C4E972
:1003500000010849A1602073206160610649A06125
:1003600009B100F0C0F8E061204670BD00F0B3F8BC
:10037000000000002D030008000000000048704746
:10038000500800207546FFF7F9FFAE4605006946A4
:10039000534620F00700854618B020B5FFF72AFF26
:1003A000BDE820404FF000064FF000074FF0000876
:1003B0004FF0000B21F00701AC46ACE8C009ACE8F7
:1003C000C009ACE8C009ACE8C0098D467047000020
:1003D0000048704758080020004870478C080020EB
:1003E000704770477047704738B504460A4600208A
:1003F0006946AFF30080002808BF38BD0246009967
:10040000204600F095F8012038BD012000F0B1B879
:10041000F8B5AFF30080054600200C46102000BF61
:100420000646A819A0420DD9324669460020AFF30E
:100430000080070008BF00F09CF80098A04218BF99
:100440000546C419FFF7C4FF05600746F01D20F0FC
:1004500007004619284600F00AF8B44208BFF8BD64
:10046000A21B31463868BDE8F84000F061B80021B1
:100470000160C0E9011070471020704770B5044654
:10048000051FFFF7A5FF0068002C14BF446870BD6E
:10049000002C18BFAC423CBF20466468F8D301680A
:1004A0000A18AA4218BF456003D12A6805461144BC
:1004B000016028684119A1421CBF6C6070BD616871
:1004C000696021680844286070BD0446AFF300806D
:1004D0002046FFF77AFE002000F044F8FFF76AFE9E
:1004E000012000F01FF810B58820FFF7E1FE00287A
:1004F00001D00021017010BD802902D808B1017817
:1005000009B100207047012100F8081B704718B19D
:1005100000F10802914201D00020704700210170D3
:100520007047000001491820ABBEFEE7260002001C
:10053000034640688C46002818BF88423CBF0346EB
:100540004068F8D318681844884207D00CF10300BB
:1005500020F00700001D411A521A0146081D0A60CA
:10056000FFF78CBF10B500F011F8BDE8104000F0A7
:1005700008B810B500F022F8BDE8104000F001B84E
:100580007047002801D0FFF7CDBF704710B500219C
:1005900002A000F03BF8012010BD00005349474184
:1005A0004252543A2041626E6F726D616C207465E4
:1005B000726D696E6174696F6E00000010B501287C
:1005C00005D0002103A000F021F8012010BD09A1F1
:1005D000F8E7000053494752544D454D3A204F75B6
:1005E00074206F662068656170206D656D6F72792B
:1005F000000000003A2048656170206D656D6F72E3
:100600007920636F727275707465640070B5054609
:100610000C460A2000E06D1C00F011F835B1287876
:100620000028F8D102E0641C00F009F814B1207829
:100630000028F8D1BDE870400A20AFF3008008B56B
:1006400069468DF800000320ABBE08BD21B10268E9
:1006500042F00102026004E002684FF6FE731A40A5
:100660000260704701684FF6FE7211400160002180
:10067000016041608160C1604B49884208D14A49AC
:100680000839496841F00F01474A083A51608AE049
:1006900045491431884208D143490839496841F035
:1006A000F001414A083A51607DE03F4928318842D3
:1006B00008D13D490839496841F470613A4A083A1D
:1006C000516070E038493C31884208D136490839D8
:1006D000496841F47041344A083A516063E0324954
:1006E0005031884208D130490839496841F47021B5
:1006F0002D4A083A516056E02B496431884208D1AE
:1007000029490839496841F47001274A083A51607B
:1007100049E025497831884208D123490839496898
:1007200041F07061204A083A51603CE01F4988421C
:1007300006D1011F096841F00F01021F116032E06C
:100740001A491431884208D11849091F096841F033
:10075000F001164A121F116025E014492831884221
:1007600008D11249091F096841F470610F4A121F2C
:10077000116018E00D493C31884208D10B49091F2E
:10078000096841F47041094A121F11600BE00749E2
:100790005031884207D10549091F096841F4702189
:1007A000024A121F1160704708000240080402400C
:1007B0001AB103680B43036002E003688B430360D4
:1007C000704710B50022026847F6F0739A430C6A2E
:1007D0008B6823430C6923434C6923438C6923436F
:1007E000CC6923434C6A23438C6A23431A43026037
:1007F000CB6843600B6883604B68C36010BD2DE914
:10080000F041024600250026002000230024002796
:1008100091F803C00CF00F0591F803C00CF0100C18
:10082000BCF1000F03D091F802C04CEA050591F825
:1008300000C0BCF1000F31D0146800202BE04FF055
:10084000010C0CFA00F3B1F800C00CEA03069E425A
:1008500020D183004FF00F0C0CFA03F7BC4305FACC
:1008600003FC4CEA040491F803C0BCF1280F06D144
:100870004FF0010C0CFA00FCC2F814C00AE091F829
:1008800003C0BCF1480F05D14FF0010C0CFA00FC7D
:10089000C2F810C0401C0828D1D31460B1F800C0C1
:1008A000BCF1FF0F34DD546800202EE000F1080C8D
:1008B0004FF0010808FA0CF3B1F800C00CEA030687
:1008C0009E4221D183004FF00F0C0CFA03F7BC437A
:1008D00005FA03FC4CEA040491F803C0BCF1280FAC
:1008E00005D100F1080C08FA0CF8C2F8148091F850
:1008F00003C0BCF1480F07D100F1080C4FF001080C
:1009000008FA0CF8C2F81080401C0828CED35460B6
:10091000BDE8F081F0B50A4600230024002100253F
:1009200000F00046B6F1004F02D11D4EF16901E022
:100930001B4E7168C0F3034583B200F44016B6F550
:10094000401F08D121F07061154E766826F0706660
:10095000134F7E6012E000F48016B6F5801F06D1BA
:10096000032606FA05F4A14341F0706106E0460D46
:10097000360103FA06F6B14341F0706122B1460D2B
:10098000360103FA06F6314300F00046B6F1004F97
:1009900002D1034EF16101E0014E7160F0BD000033
:1009A000000001400161704770B5002100230F2253
:1009B000C47804B3154C246804F4E064C4F5E0641E
:1009C000210AC1F10403CA40447804FA03F184788F
:1009D0001440214309010E4C0678A155047804F017
:1009E0001F050124AC4005786D11AD0005F1E0252F
:1009F000C5F8004109E0047804F01F050124AC406B
:100A0000044D0678761145F8264070BD0CED00E0E7
:100A100000E400E080E100E002490143024A116085
:100A2000704700000000FA050CED00E029B1064A0D
:100A300052690243044B5A6104E0034A52698243FB
:100A4000014B5A61704700000010024029B1064A6C
:100A5000D2690243044BDA6104E0034AD26982435B
:100A6000014BDA61704700000010024029B1064ACC
:100A700092690243044B9A6104E0034A92698243FB
:100A8000014B9A61704700000010024030B5002110
:100A90000022002400232D4D6D6805F00C0121B1CA
:100AA000042905D0082923D105E0294D056022E05D
:100AB000274D05601FE0254D6D6805F47012234D2C
:100AC0006D6805F48034022505EB92421CB9214D76
:100AD000554305600BE01D4D6D6805F400351DB1F3
:100AE0001C4D5543056002E0194D5543056002E079
:100AF000174D056000BF00BF144D6D6805F0F00193
:100B00000909154D6B5C0568DD4045600F4D6D684A
:100B100005F4E061090A104D6B5C4568DD408560B5
:100B20000A4D6D6805F46051C90A0B4D6B5C456850
:100B3000DD40C560054D6D6805F44041890B074DEA
:100B40006B5CC568B5FBF3F5056130BD0010024074
:100B500000127A0000093D004500002055000020E9
:100B600010B500F001F810BD0CB500200190009008
:100B70003348006840F480303149086000BF304895
:100B8000006800F4003000900198401C019000982B
:100B900018B90198B0F5A06FF1D12948006800F4A8
:100BA000003010B10120009001E00020009000987A
:100BB000012843D12348006840F010002149086013
:100BC0000846006820F0030008600846006840F00E
:100BD000020008601A4840681949486008464068A1
:100BE00048600846406840F48060486008464068B5
:100BF00020F47C1048600846406840F4E8104860E3
:100C00000846006840F08070086000BF0C4800682B
:100C100000F000700028F9D00948406820F0030077
:100C2000074948600846406840F00200486000BF3D
:100C30000348406800F00C000828F9D10CBD000002
:100C4000001002400020024010B500F001FD10BD70
:100C500010B51348006840F00100114908600846CB
:100C60004068104908400E494860084600680E492F
:100C700008400B4908600846006820F4802008609E
:100C80000846406820F4FE0048604FF41F0088606A
:100C9000FFF766FF4FF000600449086010BD0000D8
:100CA000001002400000FFF8FFFFF6FE08ED00E034
:100CB00001F40072B2F5007F00D100BFCA43028088
:100CC000704710B50022002340F66A14A14200D1FB
:100CD00000BF0A1201249440A3B2DC43048010BD7B
:100CE00021B1828942F40052828104E082894DF66A
:100CF000FF731A40828170471AB1838A0B43838243
:100D000002E0838A8B438382704702460020B1F55C
:100D1000007F00D100BF13880B400BB1012000E021
:100D200000207047F0B5034600240026002500206F
:100D300040F66A17B94200D100BF1846C1F3421409
:100D400001F01F06012707FA06F5012C01D10C302E
:100D500004E0022C01D1103000E014301AB1076811
:100D60002F43076002E00768AF430760F0BD000053
:100D70002DE9F04786B005460E460024A24600BF86
:100D8000A1460027B08900B100BF2F462C8A4CF63F
:100D9000FF700440F08804432C82AC894EF6F310B7
:100DA0000440B08831890843718908430443AC8109
:100DB000AC8A4FF6FF400440B0890443AC8201A8DE
:100DC000FFF764FE1F48874202D1DDF810A001E062
:100DD000DDF80CA0A88900F4004040B10AEBCA007D
:100DE00000EB0A1031684900B0FBF1F807E00AEBAC
:100DF000CA0000EB0A1031688900B0FBF1F86420EA
:100E0000B8FBF0F004012009642101FB1089A889D6
:100E100000F4004040B1322000EBC900B0FBF1F01B
:100E200000F00700044308E0322000EB09106421C1
:100E3000B0FBF1F000F00F0004432C8106B0BDE8D8
:100E4000F087000000380140C1F30802828070473B
:100E500008B501212420FFF709FE4FF48070ADF89A
:100E6000000010208DF8030003208DF80200694671
:100E70000948FFF7C4FC4FF480710748FFF792FD63
:100E80000420ADF8000069460448FFF7B8FC0421CF
:100E90000248FFF787FD08BD00080140001401402B
:100EA0002DE9F84F04460E4617469846DDE90A9AA2
:100EB00026600120B840A0801F492068884201D1E7
:100EC000042522E01D492068884201D108251CE044
:100ED0001B492068884201D1102516E01949206875
:100EE000884201D1202510E017492068884201D1AD
:100EF00040250AE015492068884201D1802504E098
:100F000013492068884200D18515BAF1000F01D03D
:100F100045F0010501212846FFF7A8FD8DF8029054
:100F20008DF80380A088ADF8000069462068FFF7BF
:100F300066FC2046BDE8F88F00080140000C014027
:100F4000001001400014014000180140001C014045
:100F50000020014030B597B004460D46042D04DA58
:100F600001210846FFF762FD03E001210220FFF79F
:100F70005DFD274991E80D00C968CDE9142316915C
:100F80001390681E13A951F820002062204B1033E3
:100F90000FCBCDE91123CDE90F01681E0FA951F840
:100FA000200060621A4B2033D3E90012D3E9020318
:100FB000CDE90D03CDE90B12681E0BA951F82000F5
:100FC000A062206AFFF74EFB2068001D0090A06918
:100FD0000190002002904FF496700390002004903E
:100FE00080200590002006900790089009900A90B4
:100FF0006946206AFFF7E5FB012240212068FFF7E0
:101000007BFE0121206AFFF721FB17B030BD0000F5
:101010001825000830B597B004460D46042D04DAB3
:1010200001210846FFF702FD03E001210220FFF73E
:10103000FDFC2C4991E80D00C968CDE914231691F7
:101040001390681E13A951F82000E060254B10335F
:10105000D3E901211868DB68CDE91113CDE90F024E
:10106000681E0FA951F8200020611E4B2033D3E9E0
:101070000020D3E90213CDE90D13CDE90B20681E42
:101080000BA951F820006061E068FFF7EBFA2068D7
:10109000001D0090606801901020029000200390D5
:1010A00004908020059000200690079008900990F9
:1010B0000A906946E068FFF784FB01220221E0689C
:1010C000FFF776FB01220821E068FFF771FB0122A0
:1010D00080212068FFF710FE0021E068FFF7B6FAD4
:1010E00017B030BDE824000873B5044604F12E00A3
:1010F00000F032FD012806DAB4F82A02401CA4F8F8
:101100002A0200207CBD01A904F12E0000F04EFD52
:1011100094F82C0008B10120F4E704F12E0000F04F
:1011200023FD002801DC0120ECE7012084F82C00DD
:10113000207A38B304F12E0000F016FDB0F5967F4A
:1011400011DC04F12E0000F00FFDE168486004F1AD
:101150002E0000F009FD05462A4604F12E006168C4
:1011600000F045FD09E04FF49670E16848600246E2
:1011700004F12E00616800F03AFD0121E068FFF7FC
:1011800065FA1DE040F226612068FFF79AFD40F203
:1011900027712068FFF795FD012240F22661206843
:1011A000FFF7C0FD40212068FFF7AFFD054904F1BE
:1011B0002E0000F0DDFC034909782068FFF744FEAB
:1011C00001209FE7010000202DE9F04104460E4672
:1011D000154604F12E0000F0BFFCA84207DAB4F86F
:1011E0002A022844A4F82A020020BDE8F0812A46F9
:1011F000314604F12E0000F01FFD94F82C0008B1D8
:101200000120F2E704F12E0000F0AEFC002801DC22
:101210000120EAE7012084F82C00207A38B304F199
:101220002E0000F0A1FCB0F5967F11DC04F12E0039
:1012300000F09AFCE168486004F12E0000F094FC94
:1012400007463A4604F12E00616800F0D0FC09E040
:101250004FF49670E1684860024604F12E00616820
:1012600000F0C5FC0121E068FFF7F0F91DE040F255
:1012700026612068FFF725FD40F227712068FFF7FF
:1012800020FD012240F226612068FFF74BFD40213E
:101290002068FFF73AFD064904F12E0000F068FCD3
:1012A000034909782068FFF7CFFD01209DE7000082
:1012B000000000202DE9F04FA7B004460D46164669
:1012C0001F46DDF8C0B0DDE9339ADDF8C88004F1CF
:1012D0002E0000F0D9FCA0F12E0404F50C7000F0F3
:1012E000D3FCA0F50C74042D01DC584600E000206E
:1012F0002072042D01DC319800E0002020771422B8
:10130000964922A8FEF788FF681E22A951F82000FE
:101310002060032D46DC002F44D0904A143207CAC7
:1013200013AB07C38D49203103C9CDE911018B4AA5
:10133000283207CA0EAB07C38849343103C9CDE947
:101340000C01012086490978CDE90010681E33F8A8
:10135000102013AB53F82010824803780AA8FFF737
:101360009FFD01207E490978CDE90010681E0CAB75
:1013700033F810200EAB53F820107B48037808A8F0
:10138000FFF78EFD754A3C32D2E900109268CDE934
:1013900006020591691E05AA52F821000121FFF7F6
:1013A000B9FA3BE014226D49483111A8FEF734FF29
:1013B0006A4A5C3207CA0EAB07C314226749683118
:1013C00009A8FEF729FF654A7C32D2E9001092682D
:1013D000CDE907020691012061490978CDE90010A5
:1013E000681E0EAB33F8102011AB53F820105D4887
:1013F000037804A8FFF754FD012059490978CDE985
:101400000010681E06AB33F8102009AB53F820100B
:101410005548037802A8FFF743FD00BF4FF48060F2
:10142000FFF7FAFA4D49883103C9CDE92001681E5A
:1014300020A9085C8DF87C0007208DF87D00012034
:101440008DF87E008DF87F001FA8FFF7ADFA207A97
:1014500060B14248903000681590681E15A9085C7C
:101460008DF87C001FA8FFF79FFA00BF14223B49AC
:1014700094311AA8FEF7D0FE012D07D1691E1AAAD1
:1014800052F821000121FFF7F1FA06E0691E1AAABD
:1014900052F821000121FFF7D9FA1696ADF85C90B9
:1014A000ADF85EA0ADF860800020ADF864000C20BF
:1014B000ADF8620016A92068FFF75AFC01212068E8
:1014C000FFF70EFC207F60B1002240F2255120681A
:1014D000FFF728FC012240F224412068FFF722FC9C
:1014E00005E0012240F225512068FFF71BFC207A1D
:1014F00028B1002240F226612068FFF713FC40214A
:101500002068FFF7D5FB40F225512068FFF7D0FB9C
:1015100040F224412068FFF7CBFB207F40B14FF41D
:10152000967000F086FAA06129462046FFF712FD6A
:10153000207A40B14FF4967000F07BFA6060294643
:101540002046FFF767FD681E084941F82040052046
:1015500084F82E02204627B0BDE8F08F4024000812
:101560004A250008522500084C2500085C00002090
:101570002DE9F047824600F07BF80446104800EB66
:10158000CA00D0E900633246204600F06FFE804674
:101590000B48A03800EBCA00D0E900432246404681
:1015A00000F02EFE0AD20748D0E90010044A02EBF0
:1015B000CA02C2E900100120BDE8F0870020FBE765
:1015C000B0070020280000204FF0E020006920F044
:1015D00007004FF0E021086105484861886108462E
:1015E000006940F00300086101200249087070475B
:1015F0004031F7004400002070B504460D46114804
:10160000007808B9FFF7E0FF0F480068132802DDF3
:101610004FF0FF3070BD0D480B49096800EBC10069
:1016200030C000F025F8094AA032074B1B6802EBD6
:10163000C30203C20448006803490968491C024AFE
:101640001160E7E744000020400000201007002060
:1016500010B5044A044B054903C900F021FB034AB5
:1016600003C210BDCDCCCCCCCCCCFC3F3000002094
:101670002DE9F0474FF0E021886900F01DFD064696
:101680000022214B00F0C0FB04460D461F4A204BB0
:10169000204903C900F004FB804622462B4600F097
:1016A000E5FD1D4A03C21D481B490CC803C900F0D3
:1016B000DDFD1B4A03C200221A4B194903C900F081
:1016C0000FFD08D2114A124B134903C900F0E8FA82
:1016D000114A03C20EE0144A144B114903C900F029
:1016E0008FFD07D2094A0A4B0B4903C900F0BEFD22
:1016F000094A03C20848D0E90010084AC2E90010AC
:10170000054903C9BDE8F087882A6141CDCCCCCC1E
:10171000CCCCFC3F3000002028000020200000201E
:10172000380000200000F0BFA4703D0AD7A3FC3FA2
:101730002DE9F843044617E0E068B0F8F801401CD2
:1017400080B2E168A1F8F801E168B1F8F4118842CB
:1017500003DB0020E168A1F8F801E068B0F8F601C9
:10176000401EE168A1F8F601E068B0F8F601002833
:1017700007DDE068B0F8F811405C94F84111884248
:10178000DAD1E068B0F8F601052803DA4FF0FF304F
:10179000BDE8F883E068B0F8F801401C85B2E06865
:1017A000B0F8F401A84204DCE068B0F8F401281AAB
:1017B00085B2E068405D009000260AE006EB460135
:1017C0006068405C9DF80010884200D104E0701C05
:1017D00086B2207AB042F1DC00BF207AB04206DC4B
:1017E0006946E06800F0C4F96FF00100D0E7E068F6
:1017F000B0F8F801801C85B2E068B0F8F401A842A6
:1018000004DCE068B0F8F401281A85B2E068475DAE
:101810000321606801FB06008078B84206D0694663
:10182000E06800F0A5F96FF00200B1E7E068B0F8F9
:10183000F611781D814202DA6FF00300A8E74FF03D
:101840000008002015E0E168B1F8F81101448DB2FC
:10185000E168B1F8F411A94204DCE168B1F8F411CF
:10186000691A8DB2E168495D414401F0FF08411CED
:10187000C8B2F91C8842E6DBA81C1FFA80F9E068B0
:10188000B0F8F401484506DCE068B0F8F401A9EBD3
:1018900000001FFA80F9E06810F80900404400F0E9
:1018A000FF08681C80B20546E168B1F8F41188426F
:1018B00004DBE068B0F8F401281A85B2E068405D06
:1018C000404506D06946E06800F052F96FF0040028
:1018D0005EE7681C80B20546E168B1F8F411884201
:1018E00004DBE068B0F8F401281A85B2E068415DD5
:1018F00094F87102814206D06946E06800F038F938
:101900006FF0050044E704F24111E06800F030F99F
:1019100004F5A171E06800F02BF904F24311E068CE
:1019200000F026F93A4604F5A271E06800F05FF98C
:1019300004F51C71E06800F01BF904F27121E06805
:1019400000F016F94FF4A170005D40B220E70246A6
:1019500002F5A270405C704700F113035A547047BF
:1019600070B50446002509E005EB45016068415C5F
:10197000607C814200D104E0681CC5B2207AA84294
:10198000F2DC00BF207AA84201DC002070BD05EB2C
:101990004501606808444178A174217CA07C014421
:1019A000607C014494F84001084484F83F0100251C
:1019B00009E094F83F1104F11300405D084484F8F5
:1019C0003F01681CC5B2A07CA842F2DC217C2068E3
:1019D000FFF78AFB617C2068FFF786FBA17C20680B
:1019E000FFF782FBA27C04F113012068FFF7ECFBF8
:1019F00094F83F112068FFF777FB94F840112068B6
:101A0000FFF772FB0120C1E7F0B505ACF0CC016037
:101A100001F50C7CC0F80CC04260047480F84051A1
:101A20000372047480F8414180F8405180F871528B
:101A3000F0BD10B500F002F810BD000010B50400B4
:101A400007D1012405E0FEF72FFC006800B9044827
:101A500080472046FEF72CFC0028F4D010BD000083
:101A60000F03000800B585B000200123CDE9013047
:101A700003900093049003464FF4E132012109489A
:101A8000FFF718FC0020AF22AA23CDE90120009324
:101A900003900523044A03490448FFF7B5FF05B046
:101AA00000BD000070000020020000209C04002007
:101AB000FFF7CEF9FFF788FD002400BF00BF1F48E5
:101AC0001F49FFF799FDC6B21E48012180F82E126A
:101AD00000BF00BF01201C4908601C49C1F88801F3
:101AE000002500BF29E03046FFF742FD28B3601C07
:101AF000C4B2032C00DB01241548FFF719FE0128AE
:101B000011D1C5F10100C5B2012111484174002174
:101B1000FFF71DFF07463A4600210D48FFF71CFF5F
:101B20000B48FFF71DFF45B1012C06D106480068A0
:101B3000C0F101000749C1F8A001D4E79A99999929
:101B40009999B93F70000020A001214200802242F3
:101B50009C040020000021420146B1F8F401B1F8D4
:101B6000F621801A80B270470146B1F8F60170473D
:101B70000246B2F8F601002801DC00207047B2F8F6
:101B8000F831581CA2F8F801D05C0870B2F8F801DE
:101B9000B2F8F431984202DB0020A2F8F801B2F862
:101BA000F601401EA2F8F6010120E7E710B5024653
:101BB000B2F8F601B2F8F431984201DB002010BD12
:101BC0000B78B2F8FA41601CA2F8FA011355B2F88A
:101BD000FA01B2F8F431984202DB0020A2F8FA01CF
:101BE000B2F8F601401CA2F8F6010120E7E730B593
:101BF0000346B3F8F601904201DA002030BD002020
:101C000011E0B3F8F8516C1CA3F8F8415C5D0C547A
:101C1000B3F8F841B3F8F451AC4202DB0024A3F866
:101C2000F841441CA0B29042EBDBB3F8F601801AF5
:101C3000A3F8F6010120E1E770B50346B3F8F60119
:101C40001044B3F8F441A04201DD002070BD002033
:101C500011E00D5CB3F8FA61741CA3F8FA419D55CC
:101C6000B3F8FA41B3F8F451AC4202DB0024A3F814
:101C7000FA41441CA0B29042EBDBB3F8F6011044E9
:101C8000A3F8F6010120E1E74FF4FA71A0F8F4118E
:101C90000021A0F8F611A0F8F811A0F8FA11704789
:101CA00010B591EA030F48BF83F0004300F1E682CC
:101CB000841A71EB030C05D2121943EB0C03001BC1
:101CC00061EB0C01DFF824E14FEA1154A4EB135C43
:101CD0001EEA430F18BF9EEA445F73D023EA0E0347
:101CE000DCF1200E21EA045143F4801332D322FAAE
:101CF0000CFE10EB0E0023FA0CFE41EB0E01CCF1B2
:101D0000200E03FA0EFE10EB0E0051F10001B1F5AA
:101D1000801FCCF1200E32D201EB045112FA0EF2E8
:101D2000BDE8104058BF7047401C38BF5FEA420210
:101D300018BF7047002814BF20F0010041F10001D6
:101D40004FEA410313F5001F38BF7047A1F1C041AE
:101D500000F050BA012A43EB0302ACF1200CDCF195
:101D60001F0E32BF4FF0000E23FA0CF310EB0300EE
:101D700041EB0451B4EB115FD0D0A1EB045101F55C
:101D8000801149085FEA300001EB04510ED350F195
:101D9000000038BF12FA0EFE08D1BDE81040C9E7B6
:101DA000401C38BF5FEA4202CAD1C3E7BDE8104019
:101DB0004FEA410313F5001F38BF7047A1F1C0413E
:101DC00000F018BA9EEA445F08D011EA5E0FBDE841
:101DD000104004BF01F0004100207047BDE81040F2
:101DE00070B500F0B9F900BF64FBBE3E0000E0FF33
:101DF000491058BFC1F140415B1058BFC3F1404387
:101E00008B42EFF3008070472DE9C04130B4DFF81A
:101E1000A0C23CEA111418BF3CEA131400F0EC8095
:101E200081EA03051CEA111444EAD57418BF1CEAC0
:101E3000131500F0C780A4EB05044FF0004545EAF8
:101E4000C12145EAC32341EA505143EA525304F108
:101E50007F74994204F500344FEAC0204FEAC22251
:101E600008BF904200F09C804FEA13650FF24016C5
:101E7000765D4FEA134506FB05F7C7F1807706FB51
:101E800007F74FEAD737A7FB03687642C8F58038D3
:101E9000A7FB06CE38BFA8F1010807FB08E64FF004
:101EA000000EA6FB028CE6FB03CEDCF1000CCEF1AB
:101EB000004E38BFAEF1010EA6FB0C584FF00007E4
:101EC0004FF00005E6FB0E87A1FB08C6A0FB07CE7E
:101ED00016EB0E0645F10005E1FB076515F1E04E36
:101EE0007EBFA4F580345FEA46066D4116F1800797
:101EF00045F100054FEA17274FEA066647EA0567EE
:101F0000A6F1DE46B6F1805F4FEA15251FD93846A7
:101F100024F0010C05EBC471BCF1FE6F01EB0C1158
:101F200002D8F0BCBDE8008124425CBF01F5801EF0
:101F30009EEAC47F02D4F0BCBDE80081244238D4BC
:101F4000F0BCA1F1C041BDE8004100F053B94FEA37
:101F5000D22242EA43524FEAD323A7FB02864FEA3A
:101F6000D02040EA415007FB03661EEA0E0F4FEAFD
:101F7000D12105FB026658BFA6EB0056B6EB005612
:101F80004FEA520E4EEAC37E18EB0E0E56EB530E7E
:101F9000BDD518EB02085E417F1C55F10005B6E780
:101FA0004FF480154FF000074FF000064FF0000887
:101FB000ADE7F0BC4FF0000001F1C04101F000417D
:101FC000BDE8008111EA0C1F0CEA131500D00CE0EB
:101FD00013EA0C1F00F025804FF00000F0BC81EAEE
:101FE000030101F00041BDE80081F0BCBDE8004103
:101FF00081EA030100F0FEB8F0BCBDE8004170B515
:1020000000F0AAF8097EFC3E00F007B881EA03015F
:102010004FF0000001F00041704781EA030100F039
:10202000E9B8F0BCBDE800414FF00000214970471D
:10203000FFFDFBF9F7F5F4F2F0EEEDEBE9E8E6E48D
:10204000E3E1E0DEDDDBDAD8D7D5D4D3D1D0CFCD14
:10205000CCCBCAC8C7C6C5C4C2C1C0BFBEBDBCBB4D
:10206000BAB9B8B7B6B5B4B3B2B1B0AFAEADACAB48
:10207000AAA9A8A8A7A6A5A4A3A3A2A1A09F9F9E22
:102080009D9C9C9B9A9999989797969595949393D4
:10209000929191908F8F8E8E8D8C8C8B8B8A89896B
:1020A00088888787868585848483838282818180EE
:1020B0000000FF070000F87FB0FA80F310FA03F188
:1020C0000AD0C3F11D0303F580634FEA41504FEA84
:1020D000035202EBD12170474FF00000704700001F
:1020E00051EA030C17D41CF5801F58BFBCF5801FA4
:1020F00000F10680994218BF704708BF90427047B0
:1021000007D711F5801F58BF13F5801F19D49942C6
:102110007047894270471CF5801F08D5BCF5801FA9
:10212000F7D58B4218BF704708BF824270474FF403
:10213000001C1CEB410F38BF1CEB430F01D28B423C
:10214000704770B500F008F8922449004FF0005134
:102150004FF08053FFF74CBE0EF1020E2EF0030E2F
:102160005EF8046B364205D4012A43EB030515F5EE
:10217000001F12D8012841EB010C1CF5001F0CD8E0
:102180000ED14FEAD17C15F5001F0CEB4C0C0CF175
:10219000020C08BF4CEBD37C04E04FF0080C01E0CC
:1021A0004FEAD37C0CEB4C0526FA05F606F0070641
:1021B000B6F1040C06D20EEB860CBDE870404CF074
:1021C000010C6047DFE80CF0090B02024FF0004100
:1021D0004FF00000A1F5002170BD194610460128FE
:1021E00051EB010418BFD4F5001484BF002001F0A6
:1021F000004170BD0808A0F500114FEA3101704799
:1022000053EA010C17D41CF5801F58BFBCF5801F82
:1022100000F106808B4218BF704708BF82427047AA
:1022200007D713F5801F58BF11F5801F19D48B42B3
:1022300070479B4270471CF5801F08D5BCF5801F76
:10224000F7D5994218BF704708BF904270474FF4C6
:10225000001C1CEB430F38BF1CEB410F01D299420D
:1022600070470FB40CBC03BCFFF76BBF10B591EA0D
:10227000030F48BF83F000433FF51AAD841A71EB9A
:10228000030C07D212198CF0004C43EB0C03001B1B
:1022900061EB0C01DFF8A4E14FEA1154A4EB135CED
:1022A0001EEA430F18BF9EEA445F00F0B08023EAA5
:1022B0006E03524221EA0451C3EB6E0338BF5B1E2A
:1022C000DCF1200E25D322FA0CFE10EB0E0043FAAF
:1022D0000CFE41EB0E01CCF1200E03FA0EFE10EBCA
:1022E0000E0051F10001CCF1200E29D412FA0EF2A9
:1022F00001EB0451BDE8104058BF7047401C1CBFA3
:10230000B2F1004F704700280CBF491C20F00100BB
:10231000704712EB020E43EB030218BF4FF0010EA1
:102320004EEA4202ACF1200CDCF11E0E54D943FA05
:102330000CFE10EB0E0051F1FF31CCF11E0ED5D585
:102340000EF1010E12FA0EFE404141EB010101EBCC
:10235000445C5FEA5C5C10D910EBDE7001EB045169
:1023600038BFBEF1004FBDE8104018BF70470028CD
:102370000CBF491C20F00100704730D24FEAD42C2A
:1023800011F5001124F400641BD0B1FA81F20B3A6C
:10239000A41AA41ED2F12003914030FA03F319438A
:1023A000904001EBCC71002C01EB0451BDE81040D2
:1023B000A8BF704701F1C0414FF0000001F000419B
:1023C0007047B0FA80F310FA03F100D110BDE41A9F
:1023D000173C4805C90AE4E701EB045110BD491058
:1023E00001EB0451BDE810404FEA300002E04FF02D
:1023F000000170474A0008BF0042F8D0B2F5001F44
:1024000028BF704701F000414FF0000070479EEA7E
:10241000445F07D011EA5E0FBDE8104004BF002101
:1024200000207047BDE8104070B5FFF795FE00BF73
:1024300040DFF63E83F00041104670470000E0FFA9
:10244000003801400044004000480040004C00407B
:1024500000500040000C01400014014000140140F5
:102460000600050008000000000C014000140140B7
:1024700000140140070006000900000004000000ED
:10248000080000003000140000080140000801406E
:10249000000C014000100140001001400900020042
:1024A0000A000A000C00000000080140000801407A
:1024B000000C014000100140001401400A0003001C
:1024C0000B000B0002000000252627343500000019
:1024D0000E110C3B00400000000002000000040050
:1024E000000008000000100044000240800002408C
:1024F0001C000240580402400020000000000002BE
:102500002000000000000210001000000000000188
:102510001000000000000110580002406C00024052
:1025200030000240300402400000020000002000A1
:102530000002000000020010000001000000100076
:1025400000010000000100100201030004284814EB
:10255000101C180078250008000000205C00000016
:102560006C010008D42500085C000020541C000009
:1025700088010008F1F4FFFF0000010101023501AC
:10258000000000000000000000000000000000004B
:10259000000000000000000000000000000000003B
:1025A000000000000000000000000000000000002B
:1025B000000000000000000000000000000000001B
:1025C00000010203040102030406070809020406CD
:0425D00008000000FF
:0400000508000131BD
:00000001FF
