:020000040800F2
:10000000281D0020D9010008E1010008E3010008D3
:10001000E5010008E7010008E90100080000000010
:10002000000000000000000000000000EB010008DC
:10003000ED01000800000000EF010008E50F0008D6
:10004000F3010008F3010008F3010008F3010008C0
:10005000F3010008F3010008E90800089909000805
:10006000B1090008C9090008E109000851060008A3
:10007000550600086D06000871060008890600088C
:100080008B0600088D060008F3010008F301000844
:10009000F3010008F3010008F3010008F909000862
:1000A000F301000865100008F30100084D10000876
:1000B0007D10000895100008AD1000087D0C0008A8
:1000C000650C0008AD0C0008950C0008F301000851
:1000D000F3010008151200082D120008451200084F
:1000E00001090008F3010008F3010008F30100080A
:1000F00025110008F30100080D110008F3010008A4
:10010000F3010008F3010008C5100008F30100081E
:10011000E5110008FD110008DD100008F5100008C9
:10012000A5060008A7060008A9060008AD060008F5
:1001300000F002F800F040F80AA090E8000C8244B9
:100140008344AAF10107DA4501D100F035F8AFF296
:10015000090EBAE80F0013F0010F18BFFB1A43F0A5
:1001600001031847882E0000A82E0000103A24BF73
:1001700078C878C1FAD8520724BF30C830C144BF0C
:1001800004680C607047000000230024002500264E
:10019000103A28BF78C1FBD8520728BF30C148BFEA
:1001A0000B6070471FB59DE8030000F0D3F800F026
:1001B00069F81FBD10B510BD00F06AF91146FFF7D0
:1001C000F1FF02F0B7F900F0A7F903B4FFF7F2FF6F
:1001D00003BC00F057F90000094880470948004770
:1001E000FEE7FEE7FEE7FEE7FEE7FEE7FEE7FEE7E7
:1001F000FEE7FEE704480549054A064B7047000044
:10020000ED0F00083101000828090020281D0020FA
:10021000281900202819002010B5203AC0F00B80C2
:10022000B1E81850203AA0E81850B1E81850A0E8FA
:100230001850BFF4F5AF5FEA027C24BFB1E8185054
:10024000A0E8185044BF18C918C0BDE810405FEAC4
:10025000827C24BF51F8043B40F8043B08BF704740
:10026000D20728BF31F8023B48BF11F8012B28BF45
:1002700020F8023B48BF00F8012B704770477047D9
:100280007047000070B5064C7C44064D7D4403E089
:10029000206820448047241DAC42F9D170BD000085
:1002A000802D0000802D000000487047FC080020D1
:1002B00070B5064600F032F8056806F10B0020F034
:1002C0000704B4429CBF002070BD2B466A68BAB1D7
:1002D0001068A04210D304F1080188423CBF506866
:1002E000586007D35168101941601168091B0160FB
:1002F00058601460101D70BD13465268002AE7D183
:100300002146284600F012F80028DED170BD00F02A
:1003100083B8000000487047C808002000487047B4
:10032000D0080020704770477047704738B50446C2
:100330000A4600206946AFF30080002808BF38BD98
:1003400002460099204600F0CDF8012038BD01207A
:1003500000F009B9F8B5AFF30080054600200C465F
:10036000102000BF0646A819A0420DD932466946A2
:100370000020AFF30080070008BF00F0F4F80098F9
:10038000A04218BF0546C419FFF7C8FF056007461D
:10039000F01D20F007004619284600F00AF8B44284
:1003A00008BFF8BDA21B31463868BDE8F84000F030
:1003B00099B800210160C0E9011070471020704712
:1003C00070B50446051FFFF7A9FF0068002C14BF95
:1003D000446870BD002C18BFAC423CBF2046646826
:1003E000F8D301680A18AA4218BF456003D12A68E9
:1003F00005461144016028684119A1421CBF6C6088
:1004000070BD6168696021680844286070BD00287B
:1004100001D000F037B8704710B500F00EF8016950
:1004200019B100220261884701E08068804700F02E
:1004300079F8000010B500F075F870B500F04EF8CE
:1004400004680546A4B92020FFF732FF040011D04C
:10045000094900202C60C4E900010849A16020730B
:10046000206160610649A06109B100F083F8E06194
:10047000204670BD00F056F800000000350400086A
:100480000000000001491820ABBEFEE72600020074
:100490007546FFF73FFFAE4605006946534620F01C
:1004A0000700854618B020B5FFF7A4FEBDE8204040
:1004B0004FF000064FF000074FF000084FF0000B20
:1004C00021F00701AC46ACE8C009ACE8C009ACE8D3
:1004D000C009ACE8C0098D4670470000004870476D
:1004E00004090020034640688C46002818BF884253
:1004F0003CBF03464068F8D318681844884207D0C8
:100500000CF1030020F00700001D411A521A0146A9
:10051000081D0A60FFF754BF0446AFF30080204671
:10052000FFF753FE002000F04BF8FFF743FE0120D9
:10053000FFF7A8FF70B505460C460A2000E06D1CC9
:1005400000F036F835B128780028F8D102E0641CB4
:1005500000F02EF814B120780028F8D1BDE87040E2
:100560000A2000F025B810B500F032F8BDE81040C0
:10057000FFF74DBF10B58820FFF79AFE002801D085
:100580000021017010BD802902D808B1017809B19D
:1005900000207047012100F8081B704718B100F1D6
:1005A0000802914201D0002070470021017070477D
:1005B00008B569468DF800000320ABBE08BD704742
:1005C00010B500F02DF8BDE81040FFF720BF000087
:1005D00010B5012805D0002103A0FFF7ABFF0120D3
:1005E00010BD09A1F8E7000053494752544D454D4D
:1005F0003A204F7574206F662068656170206D65C4
:100600006D6F7279000000003A2048656170206DBE
:10061000656D6F727920636F7272757074656400B6
:1006200010B5002102A0FFF785FF012010BD0000DA
:10063000534947414252543A2041626E6F726D6194
:100640006C207465726D696E6174696F6E00000074
:100650007047000010B50448806818B102498868E6
:1006600001F056FA10BD0000740000207047000031
:1006700010B50448006818B10249086801F048FA4A
:1006800010BD0000740000207047704710B504488A
:10069000406818B10249486801F03AFA10BD0000FC
:1006A00074000020704770477047000010B5044880
:1006B000C06818B10249C86801F02AFA10BD0000EC
:1006C0007400002000F0805111B10349086001E07E
:1006D00002494860704700000404024000000240E4
:1006E00000F0805111B10349086001E002494860FF
:1006F00070470000040402400000024021B102687B
:1007000042F00102026004E002684FF6FE731A40F4
:100710000260704701684FF6FE72114001600021CF
:10072000016041608160C1604B49884208D14A49FB
:100730000839496841F00F01474A083A51608AE098
:1007400045491431884208D143490839496841F084
:10075000F001414A083A51607DE03F492831884222
:1007600008D13D490839496841F470613A4A083A6C
:10077000516070E038493C31884208D13649083927
:10078000496841F47041344A083A516063E03249A3
:100790005031884208D130490839496841F4702104
:1007A0002D4A083A516056E02B496431884208D1FD
:1007B00029490839496841F47001274A083A5160CB
:1007C00049E025497831884208D1234908394968E8
:1007D00041F07061204A083A51603CE01F4988426C
:1007E00006D1011F096841F00F01021F116032E0BC
:1007F0001A491431884208D11849091F096841F083
:10080000F001164A121F116025E014492831884270
:1008100008D11249091F096841F470610F4A121F7B
:10082000116018E00D493C31884208D10B49091F7D
:10083000096841F47041094A121F11600BE0074931
:100840005031884207D10549091F096841F47021D8
:10085000024A121F1160704708000240080402405B
:100860000146486880B2704701460020002201F02E
:10087000805313B1054B1A6801E0054B1A6802EA70
:1008800001030BB1012000E000207047000402408A
:10089000000002401AB103680B43036002E00368E2
:1008A0008B430360704710B50022026847F6F0736F
:1008B0009A430C6A8B6823430C6923434C69234396
:1008C0008C692343CC6923434C6A23438C6A2343BA
:1008D0001A430260CB6843600B6883604B68C36057
:1008E00010BD41607047000010B50448006818B1A1
:1008F0000249086800F0CEFE10BD0000A8000020EC
:1009000010B54FF4806000F0BBF830B12148806A28
:1009100018B12049886A00F0BDFE4FF4006000F075
:10092000AFF830B11B48C06A18B11A49C86A00F064
:10093000B1FE4FF4805000F0A3F830B11548006BC1
:1009400018B11449086B00F0A5FE4FF4005000F0F8
:1009500097F830B10F48406B18B10E49486B00F062
:1009600099FE4FF4804000F08BF830B10948806B5D
:1009700018B10849886B00F08DFE4FF4004000F07C
:100980007FF830B10348C06B18B10249C86B00F062
:1009900081FE10BDA800002010B50448406818B1C1
:1009A0000249486800F076FE10BD0000A800002053
:1009B00010B50448806818B10249886800F06AFEE2
:1009C00010BD0000A800002010B50448C06818B190
:1009D0000249C86800F05EFE10BD0000A8000020BB
:1009E00010B50448006918B10249086900F052FEC8
:1009F00010BD0000A800002010B5202000F040F835
:100A000030B11B48406918B11949486900F042FEED
:100A1000402000F035F830B11548806918B114490C
:100A2000886900F037FE802000F02AF830B11048C5
:100A3000C06918B10E49C86900F02CFE4FF48070EF
:100A400000F01EF830B10A48006A18B10849086A77
:100A500000F020FE4FF4007000F012F830B10448AE
:100A6000406A18B10249486A00F014FE10BD000047
:100A7000A8000020014908607047000014040140EC
:100A8000014600200022074B1B6803EA0102054BC8
:100A900014331B680B4013B10AB1012000E00020A1
:100AA00070470000000401402DE9F0410246002596
:100AB0000026002000230024002791F803C00CF03A
:100AC0000F0591F803C00CF0100CBCF1000F03D01F
:100AD00091F802C04CEA050591F800C0BCF1000F86
:100AE00031D0146800202BE04FF0010C0CFA00F319
:100AF000B1F800C00CEA03069E4220D183004FF0FB
:100B00000F0C0CFA03F7BC4305FA03FC4CEA04048F
:100B100091F803C0BCF1280F06D14FF0010C0CFA7C
:100B200000FCC2F814C00AE091F803C0BCF1480F01
:100B300005D14FF0010C0CFA00FCC2F810C0401CAB
:100B40000828D1D31460B1F800C0BCF1FF0F34DD28
:100B5000546800202EE000F1080C4FF0010808FA5C
:100B60000CF3B1F800C00CEA03069E4221D18300C9
:100B70004FF00F0C0CFA03F7BC4305FA03FC4CEAE8
:100B8000040491F803C0BCF1280F05D100F1080C52
:100B900008FA0CF8C2F8148091F803C0BCF1480FB1
:100BA00007D100F1080C4FF0010808FA0CF8C2F860
:100BB0001080401C0828CED35460BDE8F0810000AE
:100BC000F0B50A46002300240021002500F000466D
:100BD000B6F1004F02D11D4EF16901E01B4E716864
:100BE000C0F3034583B200F44016B6F5401F08D1A8
:100BF00021F07061154E766826F07066134F7E60A6
:100C000012E000F48016B6F5801F06D1032606FA1E
:100C100005F4A14341F0706106E0460D360103FA88
:100C200006F6B14341F0706122B1460D360103FA78
:100C300006F6314300F00046B6F1004F02D1034EF4
:100C4000F16101E0014E7160F0BD00000000014063
:100C50000246002093680B400BB1012000E0002009
:100C60007047000010B50448006818B102490868D0
:100C700000F021FC10BD00001000002010B5044859
:100C8000006818B10249086800F024FC10BD00009B
:100C90001000002010B50448406818B102494868A7
:100CA00000F009FC10BD00001000002010B5044841
:100CB000406818B10249486800F00CFC10BD000003
:100CC0001000002021B1028842F48062028004E01A
:100CD00002884FF6FF331A400280704721B1028824
:100CE00042F48072028004E002884FF6FF631A40EB
:100CF0000280704721B1028842F40072028004E051
:100D000002884FF6FF531A400280704710B5014623
:100D10000020002300228B8A0A8B120443EA02047B
:100D200024F07F4010BD0146088AC0B2704712B15E
:100D300041F0010102E04FF6FE7319400182704755
:100D40000182704770B5002100230F22C47804B3DC
:100D5000154C246804F4E064C4F5E064210AC1F190
:100D60000403CA40447804FA03F184781440214310
:100D700009010E4C0678A155047804F01F050124E2
:100D8000AC4005786D11AD0005F1E025C5F80041D6
:100D900009E0047804F01F050124AC40044D0678F6
:100DA000761145F8264070BD0CED00E000E400E04F
:100DB00080E100E002490143024A116070470000EF
:100DC0000000FA050CED00E029B1064A5269024321
:100DD000044B5A6104E0034A52698243014B5A6151
:100DE000704700000010024029B1064AD269024350
:100DF000044BDA6104E0034AD2698243014BDA61B1
:100E0000704700000010024029B1064A926902436F
:100E1000044B9A6104E0034A92698243014B9A6150
:100E2000704700000010024030B50021002200246D
:100E300000232D4D6D6805F00C0121B1042905D06A
:100E4000082923D105E0294D056022E0274D0560E2
:100E50001FE0254D6D6805F47012234D6D6805F493
:100E60008034022505EB92421CB9214D55430560A3
:100E70000BE01D4D6D6805F400351DB11C4D55434B
:100E8000056002E0194D5543056002E0174D05600D
:100E900000BF00BF144D6D6805F0F0010909154D44
:100EA0006B5C0568DD4045600F4D6D6805F4E061E1
:100EB000090A104D6B5C4568DD4085600A4D6D6820
:100EC00005F46051C90A0B4D6B5C4568DD40C56097
:100ED000054D6D6805F44041890B074D6B5CC56895
:100EE000B5FBF3F5056130BD0010024000127A0039
:100EF00000093D005D0000206D00002010B500F0ED
:100F000001F810BD0CB50020019000903348006836
:100F100040F480303149086000BF3048006800F478
:100F2000003000900198401C0190009818B9019879
:100F3000B0F5A06FF1D12948006800F4003010B17D
:100F40000120009001E0002000900098012843D18A
:100F50002348006840F010002149086008460068F6
:100F600020F0030008600846006840F002000860B6
:100F70001A48406819494860084640684860084671
:100F8000406840F4806048600846406820F47C1067
:100F900048600846406840F4E81048600846006829
:100FA00040F08070086000BF0C48006800F00070DE
:100FB0000028F9D00948406820F00300074948603C
:100FC0000846406840F00200486000BF034840689F
:100FD00000F00C000828F9D10CBD00000010024000
:100FE0000020024010B501F089F910BD10B513487A
:100FF000006840F001001149086008464068104947
:1010000008400E494860084600680E4908400B49F0
:1010100008600846006820F48020086008464068A0
:1010200020F4FE0048604FF41F008860FFF766FF61
:101030004FF000600449086010BD0000001002403D
:101040000000FFF8FFFFF6FE08ED00E010B50448D1
:10105000006818B10249086801F086F810BD000068
:101060008800002010B50448006818B102490868DB
:1010700001F07AF810BD00008800002010B5044887
:10108000406818B10249486801F06EF810BD0000D0
:101090008800002010B50448806818B102498868AB
:1010A00001F062F810BD00008800002010B504486F
:1010B000C06818B10249C86801F056F810BD0000B8
:1010C0008800002010B50448006918B10249086979
:1010D00001F04AF810BD00008800002010B5044857
:1010E000406918B10249486901F03EF810BD00009E
:1010F0008800002010B50448806918B10249886949
:1011000001F032F810BD00008800002010B504483E
:10111000C06918B10249C86901F026F810BD000085
:101120008800002010B50448C06918B10249C86998
:1011300001F01AF810BD000088000020CA430282A6
:1011400070470146888E70470146088F70470146F8
:10115000888F70470146B1F8400070470146888C7F
:10116000704730B50246002000230024158A05EAA6
:101170000103958905EA010413B10CB1012000E0D7
:10118000002030BD0A460021018C4FF6FD73194046
:101190001143018470470A460021018C4FF6DF732A
:1011A00019404FF6FF7303EA021319430184704795
:1011B0000A460021018C4FF6FF5319404FF6FF738A
:1011C00003EA02231943018470470A460021018C77
:1011D0004DF6FF7319404FF6FF7303EA02331943CC
:1011E0000184704710B50448C06818B10249C86846
:1011F00000F08EFB10BD00007400002010B5044804
:10120000006918B10249086900F082FB10BD0000B6
:101210007400002010B50448006818B1024908683D
:1012200000F076FB10BD00007400002010B50448EB
:10123000406818B10249486800F06AFB10BD000020
:101240007400002010B50448806818B1024988680D
:1012500000F05EFB10BD00007400002001F400727D
:10126000B2F5007F00D100BFCA430280704710B5BD
:101270000022002340F66A14A14200D100BF0A12E6
:1012800001249440A3B2DC43048010BD21B18289C3
:1012900042F40052828104E082894DF6FF731A40C5
:1012A000828170471AB1838A0B43838202E0838A6A
:1012B0008B438382704702460020B1F5007F00D146
:1012C00000BF13880B400BB1012000E000207047E5
:1012D00070B50246002400230025002040F66A165F
:1012E000B14200D100BFC1F3421501F01F03012636
:1012F00006FA03F3012D02D19689334006E0022D50
:1013000002D1168A334001E0968A33400C1201263E
:1013100006FA04F41688344013B10CB1012000E041
:10132000002070BDF0B503460024002600250020F3
:1013300040F66A17B94200D100BF1846C1F3421403
:1013400001F01F06012707FA06F5012C01D10C3028
:1013500004E0022C01D1103000E014301AB107680B
:101360002F43076002E00768AF430760F0BD00004D
:101370002DE9F04786B005460E460024A24600BF80
:10138000A1460027B08900B100BF2F462C8A4CF639
:10139000FF700440F08804432C82AC894EF6F310B1
:1013A0000440B08831890843718908430443AC8103
:1013B000AC8A4FF6FF400440B0890443AC8201A8D8
:1013C000FFF732FD1F48874202D1DDF810A001E08F
:1013D000DDF80CA0A88900F4004040B10AEBCA0077
:1013E00000EB0A1031684900B0FBF1F807E00AEBA6
:1013F000CA0000EB0A1031688900B0FBF1F86420E4
:10140000B8FBF0F004012009642101FB1089A889D0
:1014100000F4004040B1322000EBC900B0FBF1F015
:1014200000F00700044308E0322000EB09106421BB
:10143000B0FBF1F000F00F0004432C8106B0BDE8D2
:10144000F08700000038014001468888C0F308009A
:101450007047C1F308028280704710B50446A07F30
:10146000082802D0A07F072823D104F5DE7104F1FB
:10147000200001F097F8D0B10120A077002084F877
:10148000B8014FF4E170005D002803DD002084F80E
:10149000B90102E0012084F8B90101212068FFF7B9
:1014A00011FC01212068FFF719FC012010BD082064
:1014B000A0770020FAE70168098841F4004102683A
:1014C00011800168098821F4004102681180092116
:1014D0008177704710B504466C480078401CC0B254
:1014E0006A490870642810DD0920A0772068008808
:1014F00040F40040216808802068008820F4004003
:10150000216808800020614908702068FFF7FEFB11
:101510005F4A811A904239D006DC6FF440310844AA
:1015200048B1012813D121E0A1F58021423979B1D8
:101530000229F7D166E00220A077002084F8B801E4
:1015400094F8B92194F8BC112068FFF7F0FB9AE0F9
:101550000320A07794F8B8315A1C84F8B82104F21B
:10156000BD12D15C2068FFF7EBFB8CE00420A07774
:101570004FF4E470005D012807DC00212068FFF7CC
:10158000A1FB01212068FFF7B5FB7CE00620A077D6
:101590002068FFF7C8FB94F8B821511C84F8B811F3
:1015A0004FF4E271095988544FF4E470005D94F8E7
:1015B000B811401A012808D100212068FFF782FBEA
:1015C00001212068FFF796FB1BE04FF4E470005DFB
:1015D00094F8B811884214D10720A07700202B4935
:1015E000087040F2C910005D40B14FF4E670005938
:1015F00020B14FF4E671085900F0FAFD2046FFF7DC
:101600002CFF40E094F8B8114FF4E170005D814286
:101610000DDA0520A07794F8B8315A1C84F8B82167
:1016200004F2BD12D15C2068FFF78AFB2AE04FF478
:10163000E470005D00280CDD0120A077002084F814
:10164000B801012084F8B90101212068FFF746FBA9
:1016500018E00720A07701212068FFF74BFB00204E
:101660000A49087040F2C910005D40B14FF4E670BD
:10167000005920B14FF4E671085900F0B9FD204639
:10168000FFF7EBFE00BF00BF10BD000018000020F8
:101690004000030010B50446E068FFF7EBF9201D99
:1016A00000F00BF820B1206801682046884703E06D
:1016B000206841682046884710BD10B50446A188BF
:1016C0002068FFF7C5FA10BD2DE9F84F04460E4615
:1016D00017469846DDE90A9A26600120B840A080A6
:1016E0001F492068884201D1042522E01D49206855
:1016F000884201D108251CE01B492068884201D19D
:10170000102516E019492068884201D1202510E0F3
:1017100017492068884201D140250AE01549206810
:10172000884201D1802504E013492068884200D115
:101730008515BAF1000F01D045F0010501212846B9
:10174000FFF762FB8DF802908DF80380A088ADF85A
:10175000000069462068FFF7A7F92046BDE8F88F2A
:1017600000080140000C014000100140001401403D
:1017700000180140001C01400020014030B597B026
:1017800004460D46042D04DA01210846FFF71CFB30
:1017900003E001210220FFF717FB274991E80D0024
:1017A000C968CDE9142316911390681E13A951F846
:1017B00020002062204B10330FCBCDE91123CDE95F
:1017C0000F01681E0FA951F8200060621A4B2033E8
:1017D000D3E90012D3E90203CDE90D03CDE90B12E1
:1017E000681E0BA951F82000A062206AFEF792FF44
:1017F0002068001D0090A0690190002002904FF425
:1018000096700390002004908020059000200690A0
:101810000790089009900A906946206AFFF743F8FC
:10182000012240212068FFF73DFD0121206AFEF7DB
:1018300065FF17B030BD0000B02F000830B597B07D
:1018400004460D46042D04DA01210846FFF7BCFAD0
:1018500003E001210220FFF7B7FA2C4991E80D00BF
:10186000C968CDE9142316911390681E13A951F885
:101870002000E060254B1033D3E901211868DB68B4
:10188000CDE91113CDE90F02681E0FA951F8200010
:1018900020611E4B2033D3E90020D3E90213CDE9A8
:1018A0000D13CDE90B20681E0BA951F820006061D3
:1018B000E068FEF72FFF2068001D0090606801902F
:1018C00010200290002003900490802005900020BA
:1018D00006900790089009900A906946E068FEF724
:1018E000E2FF01220221E068FEF7D4FF0122082175
:1018F000E068FEF7CFFF012280212068FFF7D2FCCD
:101900000021E068FEF7FAFE17B030BD802F000816
:1019100038B5044608212068FFF7CDFC10B12068D7
:10192000FFF792FD207FE0B940F225512068FFF7D4
:10193000CFFC00284AD040F225512068FFF797FCE1
:101940002068FFF781FDC0B26946009004F50C7075
:1019500000F078FE20B9B4F82C02401CA4F82C0248
:1019600034E040F224412068FFF7B2FC70B32068F5
:10197000058820688588A06AFEF7B2FE606AFEF7D7
:10198000A1FE0021206AFEF7B9FE206AFEF768FF7B
:10199000C0F5967085B2002D0EDDB5F5967F0BDA99
:1019A0002A4604F50C70A16900F092FE20B9B4F843
:1019B0002C022844A4F82C024FF49671206AFEF7FA
:1019C00090FF0121206AFEF799FE00BF207A68BBD4
:1019D00040F227712068FFF77BFC28B940F22661AE
:1019E0002068FFF775FC08B30020009004F12E007A
:1019F00000F006FE002809DD694604F12E0000F023
:101A000003FE9DF80000216888800EE0002240F26D
:101A100027712068FFF786FC002240F226612068CB
:101A2000FFF780FC002084F82C0000BF38BD0000C8
:101A300073B5044604F12E0000F0DAFD012806DA41
:101A4000B4F82A02401CA4F82A0200207CBD01A997
:101A500004F12E0000F0F6FD94F82C0008B10120EE
:101A6000F4E704F12E0000F0CBFD002801DC01209A
:101A7000ECE7012084F82C00207A38B304F12E0022
:101A800000F0BEFDB0F5967F11DC04F12E0000F0F1
:101A9000B7FDE168486004F12E0000F0B1FD054695
:101AA0002A4604F12E00616800F0EDFD09E04FF4D4
:101AB0009670E1684860024604F12E00616800F00B
:101AC000E2FD0121E068FEF719FE1DE040F226610B
:101AD0002068FFF7CCFB40F227712068FFF7C7FBB7
:101AE000012240F226612068FFF71CFC402120689B
:101AF000FFF7E1FB054904F12E0000F085FD0349E5
:101B000009782068FFF7A5FC01209FE7010000206D
:101B100070B50446207A00B970BD2069FEF7A4FEB6
:101B200001283AD16069FEF7DBFD2069FEF7CAFDA6
:101B30000021E068FEF7E2FD04F12E0000F060FDF8
:101B4000002827DD04F12E0000F05AFDB0F5967F45
:101B500011DC04F12E0000F053FDE168486004F14F
:101B60002E0000F04DFD05462A4604F12E00616866
:101B700000F089FD09E04FF49670E1684860024684
:101B800004F12E00616800F07EFD0121E068FEF79F
:101B9000B5FD02E0002084F82C0000BFBCE7000087
:101BA0002DE9F04104460E46154604F12E0000F0E2
:101BB0001FFDA84207DAB4F82A022844A4F82A0232
:101BC0000020BDE8F0812A46314604F12E0000F0E5
:101BD0007FFD94F82C0008B10120F2E704F12E00FB
:101BE00000F00EFD002801DC0120EAE7012084F866
:101BF0002C00207A38B304F12E0000F001FDB0F57E
:101C0000967F11DC04F12E0000F0FAFCE1684860D8
:101C100004F12E0000F0F4FC07463A4604F12E00D1
:101C2000616800F030FD09E04FF49670E1684860AB
:101C3000024604F12E00616800F025FD0121E068F4
:101C4000FEF75CFD1DE040F226612068FFF70FFB08
:101C500040F227712068FFF70AFB012240F226615B
:101C60002068FFF75FFB40212068FFF724FB06494F
:101C700004F12E0000F0C8FC034909782068FFF742
:101C8000E8FB01209DE70000000000202DE9F04F57
:101C9000A7B004460D4616461F46DDF8C0B0DDE984
:101CA000339ADDF8C88004F12E0000F039FDA0F170
:101CB0002E0404F50C7000F033FDA0F50C74042D17
:101CC00001DC584600E000202072042D01DC319830
:101CD00000E0002020771422964922A8FEF79CFA03
:101CE000681E22A951F820002060032D46DC002F39
:101CF00044D0904A143207CA13AB07C38D49203130
:101D000003C9CDE911018B4A283207CA0EAB07C3BC
:101D10008849343103C9CDE90C010120864909788D
:101D2000CDE90010681E33F8102013AB53F82010D3
:101D3000824803780AA8FFF7C7FC01207E4909788A
:101D4000CDE90010681E0CAB33F810200EAB53F831
:101D500020107B48037808A8FFF7B6FC754A3C3290
:101D6000D2E900109268CDE906020591691E05AA24
:101D700052F821000121FEF723FF3BE014226D49B8
:101D8000483111A8FEF748FA6A4A5C3207CA0EAB1E
:101D900007C314226749683109A8FEF73DFA654A6E
:101DA0007C32D2E900109268CDE907020691012049
:101DB00061490978CDE90010681E0EAB33F8102098
:101DC00011AB53F820105D48037804A8FFF77CFCA2
:101DD000012059490978CDE90010681E06AB33F897
:101DE000102009AB53F820105548037802A8FFF7DC
:101DF0006BFC00BF4FF48060FEF7DCFF4D4988317B
:101E000003C9CDE92001681E20A9085C8DF87C007B
:101E100007208DF87D0001208DF87E008DF87F0071
:101E20001FA8FEF78FFF207A60B14248903000680B
:101E30001590681E15A9085C8DF87C001FA8FEF798
:101E400081FF00BF14223B4994311AA8FEF7E4F940
:101E5000012D07D1691E1AAA52F821000121FEF7AF
:101E6000D3FF06E0691E1AAA52F821000121FEF7ED
:101E7000BBFF1696ADF85C90ADF85EA0ADF8608043
:101E80000020ADF864000C20ADF8620016A92068AF
:101E9000FFF76EFA01212068FFF7F8F9207F60B1A3
:101EA000002240F225512068FFF73CFA012240F25F
:101EB00024412068FFF736FA05E0012240F225515F
:101EC0002068FFF72FFA207A28B1002240F226611D
:101ED0002068FFF727FA40212068FFF7BFF940F29A
:101EE00025512068FFF7BAF940F224412068FFF736
:101EF000B5F9207F40B14FF4967000F0DCFAA06194
:101F000029462046FFF73AFC207A40B14FF49670FC
:101F100000F0D1FA606029462046FFF78FFC681E6A
:101F2000084941F82040052084F82E02204627B0B9
:101F3000BDE8F08FD82E0008E22F0008EA2F000835
:101F4000E42F00087400002070B5044601212068C9
:101F5000FFF707F9F8B101212068FFF7EFF82068D3
:101F6000FFF7FCF8054647F23050854209DA4EF695
:101F70006022D4E908309A1840F10000C4E9082032
:101F800008E04EF66021D4E90830591A60F10000EB
:101F9000C4E9081000BF70BD10B5044602212068D6
:101FA000FFF7DFF888B32068FFF7CBF86B490880AC
:101FB0006B48007840B1084600886A4908800221D1
:101FC0002068FFF7DFF818E0664800886349098851
:101FD000884206DC6348008860490988081AA060C6
:101FE00007E0E0885F490988401A5C49098808448D
:101FF000A06000212068FFF7C5F85948007808B9AB
:10200000012000E000205649087004212068FFF7F5
:10201000A8F870B32068FFF797F850490880504837
:10202000407840B1084600884E4948800221206827
:10203000FFF7B1F818E04B484088484909888842C2
:1020400006DC4848408845490988091AE16007E0EC
:10205000E08844494988401A404909880144E160C0
:1020600000212068FFF797F83D48407810B901201B
:1020700001E002E000203A49487008212068FFF79B
:1020800070F870B32068FFF762F83449088034486C
:10209000807840B108460088324988800221206853
:1020A000FFF786F818E02F4880882C490988884275
:1020B00006DC2C48808829490988091A216107E033
:1020C000E08828498988401A244909880144216107
:1020D00000212068FFF76CF82148807810B90120B2
:1020E00001E002E000201E49887010212068FFF7FF
:1020F00038F870B32068FFF72DF8184908801848A1
:10210000C07840B1084600881649C880022120687E
:10211000FFF75BF818E01348C08810490988884227
:1021200006DC1048C0880D490988091A616107E07A
:10213000E0880C49C988401A08490988014461614E
:1021400000212068FFF741F80548C07810B9012048
:1021500001E002E000200249C87010BD0E0000201E
:10216000020000200600002010B504462079072850
:102170001ED2DFE800F01D041C13181D17000121FA
:102180002068FEF7EEFF40B101212068FEF7D6FF80
:10219000206B00B910BD206B804726E02046FFF77A
:1021A000FBFE22E000BF2046FFF7CEFE1DE000BF91
:1021B00002212068FEF7C2FF04212068FEF7BEFF5F
:1021C00008212068FEF7BAFF10212068FEF7B6FF4D
:1021D00040212068FEF7B2FF80212068FEF7AEFFA5
:1021E00001212068FEF7AAFF00BF00BF00BFD1E7B2
:1021F0002DE9F04104460120607000F08FF805469B
:102200000E46D4E902733A462846314600F07AFD7C
:10221000C4E90401C4E90256BDE8F0812DE9F047A4
:10222000824600F07BF80446104800EBCA00D0E973
:1022300000633246204600F065FD80460B48A0381A
:1022400000EBCA00D0E900432246404600F024FDDE
:102250000AD20748D0E90010044A02EBCA02C2E9D8
:1022600000100120BDE8F0870020FBE728080020CF
:10227000400000204FF0E020006920F007004FF000
:10228000E02108610548486188610846006940F01E
:102290000300086101200249087070474031F700CF
:1022A0005C00002070B504460D461148007808B95E
:1022B000FFF7E0FF0F480068132802DD4FF0FF3002
:1022C00070BD0D480B49096800EBC10030C000F03B
:1022D00025F8094AA032074B1B6802EBC30203C270
:1022E0000448006803490968491C024A1160E7E78D
:1022F0005C000020580000208807002010B5044A28
:10230000044B054903C900F017FA034A03C210BD84
:10231000CDCCCCCCCCCCFC3F480000202DE9F04704
:102320004FF0E021886900F013FC06460022214BA3
:1023300000F0B6FA04460D461F4A204B204903C957
:1023400000F0FAF9804622462B4600F0DBFC1D4ADD
:1023500003C21D481B490CC803C900F0D3FC1B4A2B
:1023600003C200221A4B194903C900F005FC08D228
:10237000114A124B134903C900F0DEF9114A03C296
:102380000EE0144A144B114903C900F085FC07D232
:10239000094A0A4B0B4903C900F0B4FC094A03C2BD
:1023A0000848D0E90010084AC2E90010054903C9ED
:1023B000BDE8F087882A6141CDCCCCCCCCCCFC3FA9
:1023C000480000204000002038000020500000207D
:1023D0000000F0BFA4703D0AD7A3FC3F00F1130337
:1023E0005A54704770B50446002509E005EB4501D5
:1023F0006068415C607C814200D104E0681CC5B229
:10240000207AA842F2DC00BF207AA84201DC00203A
:1024100070BD05EB4501606808444178A174217CDA
:10242000A07C0144607C014494F84001084484F895
:102430003F01002509E094F83F1104F11300405DCD
:10244000084484F83F01681CC5B2A07CA842F2DCB5
:10245000217C2068FFF7ECFA617C2068FFF7E8FA3E
:10246000A17C2068FFF7E4FAA27C04F11301206844
:10247000FFF796FB94F83F112068FFF7D9FA94F81C
:1024800040112068FFF7D4FA0120C1E7F0B505AC90
:10249000F0CC016001F50C7CC0F80CC04260047403
:1024A00080F840510372047480F8414180F8405133
:1024B00080F87152F0BD10B500F002F810BD0000B8
:1024C00010B5040007D1012405E0FDF7EDFE00681A
:1024D00000B9044880472046FDF7EAFE0028F4D002
:1024E00010BD00000F03000800B585B000200123D7
:1024F000CDE9013003900093049003464FF4E1329C
:1025000001210948FFF7C2FB0020AF22AA23CDE931
:102510000120009303900523044A03490448FFF770
:10252000B5FF05B000BD0000E80000201900002044
:1025300014050020FFF79EFE0025002400BF15486B
:102540001549FFF7AFFEC6B21448012180F82E12DC
:1025500000BF00BF1CE03046FFF760FEC0B1681C42
:10256000C5B2B5F57A7F00DB0125601CC4B2032C2F
:1025700000DB0024012C0BD1012701210848417404
:102580003A460021FFF72AFF0548FFF72BFF00BF5F
:10259000E1E700009A9999999999B93FE8000020DC
:1025A0001405002070B504460D46B4F892010028C9
:1025B00001DC002070BDB4F89421501CA4F89401F3
:1025C00002EB820004EB800114222846FDF724FE72
:1025D000B4F89401B4F89011884202DB0020A4F80A
:1025E0009401B4F89201401EA4F892010120E1E7A1
:1025F0000146B1F8F401B1F8F621801A80B27047B3
:102600000146B1F8F60170470246B2F8F60100281B
:1026100001DC00207047B2F8F831581CA2F8F8012C
:10262000D05C0870B2F8F801B2F8F431984202DBDD
:102630000020A2F8F801B2F8F601401EA2F8F60157
:102640000120E7E710B50246B2F8F601B2F8F4311E
:10265000984201DB002010BD0B78B2F8FA41601CF3
:10266000A2F8FA011355B2F8FA01B2F8F43198421F
:1026700002DB0020A2F8FA01B2F8F601401CA2F831
:10268000F6010120E7E730B50346B3F8F6019042C2
:1026900001DA002030BD002011E0B3F8F8516C1CC5
:1026A000A3F8F8415C5D0C54B3F8F841B3F8F45169
:1026B000AC4202DB0024A3F8F841441CA0B29042D3
:1026C000EBDBB3F8F601801AA3F8F6010120E1E78D
:1026D00070B50346B3F8F6011044B3F8F441A042D4
:1026E00001DD002070BD002011E00D5CB3F8FA613F
:1026F000741CA3F8FA419D55B3F8FA41B3F8F451AC
:10270000AC4202DB0024A3F8FA41441CA0B2904280
:10271000EBDBB3F8F6011044A3F8F6010120E1E782
:102720004FF4FA71A0F8F4110021A0F8F611A0F806
:10273000F811A0F8FA11704710B591EA030F48BFDD
:1027400083F0004300F1E682841A71EB030C05D29A
:10275000121943EB0C03001B61EB0C01DFF824E1C1
:102760004FEA1154A4EB135C1EEA430F18BF9EEA14
:10277000445F73D023EA0E03DCF1200E21EA0451FA
:1027800043F4801332D322FA0CFE10EB0E0023FA2E
:102790000CFE41EB0E01CCF1200E03FA0EFE10EB05
:1027A0000E0051F10001B1F5801FCCF1200E32D2A4
:1027B00001EB045112FA0EF2BDE8104058BF704709
:1027C000401C38BF5FEA420218BF7047002814BFA0
:1027D00020F0010041F100014FEA410313F5001F11
:1027E00038BF7047A1F1C04100F050BA012A43EB55
:1027F0000302ACF1200CDCF11F0E32BF4FF0000ED3
:1028000023FA0CF310EB030041EB0451B4EB115F1E
:10281000D0D0A1EB045101F5801149085FEA3000E6
:1028200001EB04510ED350F1000038BF12FA0EFE36
:1028300008D1BDE81040C9E7401C38BF5FEA42023A
:10284000CAD1C3E7BDE810404FEA410313F5001FAA
:1028500038BF7047A1F1C04100F018BA9EEA445F4A
:1028600008D011EA5E0FBDE8104004BF01F000413E
:1028700000207047BDE8104070B500F0B9F900BF06
:1028800064FBBE3E0000E0FF491058BFC1F140416B
:102890005B1058BFC3F140438B42EFF30080704799
:1028A0002DE9C04130B4DFF8A0C23CEA111418BFD2
:1028B0003CEA131400F0EC8081EA03051CEA1114D1
:1028C00044EAD57418BF1CEA131500F0C780A4EBC6
:1028D00005044FF0004545EAC12145EAC32341EA1A
:1028E000505143EA525304F17F74994204F5003485
:1028F0004FEAC0204FEAC22208BF904200F09C80FD
:102900004FEA13650FF24016765D4FEA134506FB5A
:1029100005F7C7F1807706FB07F74FEAD737A7FB24
:1029200003687642C8F58038A7FB06CE38BFA8F109
:10293000010807FB08E64FF0000EA6FB028CE6FB41
:1029400003CEDCF1000CCEF1004E38BFAEF1010E2B
:10295000A6FB0C584FF000074FF00005E6FB0E8772
:10296000A1FB08C6A0FB07CE16EB0E0645F100053D
:10297000E1FB076515F1E04E7EBFA4F580345FEA08
:1029800046066D4116F1800745F100054FEA17270D
:102990004FEA066647EA0567A6F1DE46B6F1805FB4
:1029A0004FEA15251FD9384624F0010C05EBC471F8
:1029B000BCF1FE6F01EB0C1102D8F0BCBDE8008148
:1029C00024425CBF01F5801E9EEAC47F02D4F0BCA5
:1029D000BDE80081244238D4F0BCA1F1C041BDE87B
:1029E000004100F053B94FEAD22242EA43524FEA83
:1029F000D323A7FB02864FEAD02040EA415007FBD1
:102A000003661EEA0E0F4FEAD12105FB026658BF8E
:102A1000A6EB0056B6EB00564FEA520E4EEAC37EC6
:102A200018EB0E0E56EB530EBDD518EB02085E41A7
:102A30007F1C55F10005B6E74FF480154FF00007F5
:102A40004FF000064FF00008ADE7F0BC4FF000007B
:102A500001F1C04101F00041BDE8008111EA0C1F05
:102A60000CEA131500D00CE013EA0C1F00F02580CF
:102A70004FF00000F0BC81EA030101F00041BDE825
:102A80000081F0BCBDE8004181EA030100F0FEB81E
:102A9000F0BCBDE8004170B500F0AAF8097EFC3E2C
:102AA00000F007B881EA03014FF0000001F0004197
:102AB000704781EA030100F0E9B8F0BCBDE80041CD
:102AC0004FF0000021497047FFFDFBF9F7F5F4F2E4
:102AD000F0EEEDEBE9E8E6E4E3E1E0DEDDDBDAD8B9
:102AE000D7D5D4D3D1D0CFCDCCCBCAC8C7C6C5C417
:102AF000C2C1C0BFBEBDBCBBBAB9B8B7B6B5B4B32E
:102B0000B2B1B0AFAEADACABAAA9A8A8A7A6A5A418
:102B1000A3A3A2A1A09F9F9E9D9C9C9B9A999998DC
:102B20009797969595949393929191908F8F8E8E7F
:102B30008D8C8C8B8B8A898988888787868585840C
:102B400084838382828181800000FF070000F87FF8
:102B5000B0FA80F310FA03F10AD0C3F11D0303F5B4
:102B600080634FEA41504FEA035202EBD121704794
:102B70004FF000007047000051EA030C17D41CF519
:102B8000801F58BFBCF5801F00F10680994218BF16
:102B9000704708BF9042704707D711F5801F58BF94
:102BA00013F5801F19D499427047894270471CF56C
:102BB000801F08D5BCF5801FF7D58B4218BF704722
:102BC00008BF824270474FF4001C1CEB410F38BF16
:102BD0001CEB430F01D28B42704770B500F008F830
:102BE000922449004FF000514FF08053FFF74CBE44
:102BF0000EF1020E2EF0030E5EF8046B364205D481
:102C0000012A43EB030515F5001F12D8012841EBFB
:102C1000010C1CF5001F0CD80ED14FEAD17C15F524
:102C2000001F0CEB4C0C0CF1020C08BF4CEBD37CDE
:102C300004E04FF0080C01E04FEAD37C0CEB4C05AC
:102C400026FA05F606F00706B6F1040C06D20EEBDE
:102C5000860CBDE870404CF0010C6047DFE80CF0DA
:102C6000090B02024FF000414FF00000A1F50021D6
:102C700070BD19461046012851EB010418BFD4F568
:102C8000001484BF002001F0004170BD0808A0F5C9
:102C900000114FEA3101704753EA010C17D41CF5BB
:102CA000801F58BFBCF5801F00F106808B4218BF03
:102CB000704708BF8242704707D713F5801F58BF7F
:102CC00011F5801F19D48B4270479B4270471CF549
:102CD000801F08D5BCF5801FF7D5994218BF7047F3
:102CE00008BF904270474FF4001C1CEB430F38BFE5
:102CF0001CEB410F01D2994270470FB40CBC03BCCE
:102D0000FFF76BBF10B591EA030F48BF83F0004394
:102D10003FF51AAD841A71EB030C07D212198CF02F
:102D2000004C43EB0C03001B61EB0C01DFF8A4E14A
:102D30004FEA1154A4EB135C1EEA430F18BF9EEA3E
:102D4000445F00F0B08023EA6E03524221EA04514E
:102D5000C3EB6E0338BF5B1EDCF1200E25D322FAD5
:102D60000CFE10EB0E0043FA0CFE41EB0E01CCF111
:102D7000200E03FA0EFE10EB0E0051F10001CCF113
:102D8000200E29D412FA0EF201EB0451BDE81040D6
:102D900058BF7047401C1CBFB2F1004F704700285D
:102DA0000CBF491C20F00100704712EB020E43EBF0
:102DB000030218BF4FF0010E4EEA4202ACF1200CA4
:102DC000DCF11E0E54D943FA0CFE10EB0E0051F14B
:102DD000FF31CCF11E0ED5D50EF1010E12FA0EFE0A
:102DE000404141EB010101EB445C5FEA5C5C10D9BE
:102DF00010EBDE7001EB045138BFBEF1004FBDE8AF
:102E0000104018BF704700280CBF491C20F001007B
:102E1000704730D24FEAD42C11F5001124F400642D
:102E20001BD0B1FA81F20B3AA41AA41ED2F12003EE
:102E3000914030FA03F31943904001EBCC71002C20
:102E400001EB0451BDE81040A8BF704701F1C0413B
:102E50004FF0000001F000417047B0FA80F310FA23
:102E600003F100D110BDE41A173C4805C90AE4E794
:102E700001EB045110BD491001EB0451BDE81040B5
:102E80004FEA300002E04FF0000170474A0008BFEF
:102E90000042F8D0B2F5001F28BF704701F0004192
:102EA0004FF0000070479EEA445F07D011EA5E0FC2
:102EB000BDE8104004BF002100207047BDE810406D
:102EC00070B5FFF795FE00BF40DFF63E83F000418E
:102ED000104670470000E0FF003801400044004009
:102EE00000480040004C004000500040000C0140F1
:102EF0000014014000140140060005000800000015
:102F0000000C0140001401400014014007000600BD
:102F10000900000004000000080000003000140058
:102F20000008014000080140000C01400010014071
:102F300000100140090002000A000A000C00000015
:102F40000008014000080140000C01400010014051
:102F5000001401400A0003000B000B0002000000F7
:102F600025262734350000000E110C3B00400000E0
:102F70000000020000000400000008000000100033
:102F800044000240800002401C00024058040240FD
:102F900000200000000000022000000000000210DD
:102FA00000100000000000011000000000000110EF
:102FB000580002406C0002403000024030040240E1
:102FC00000000200000020000002000000020010CB
:102FD00000000100000010000001000000010010CE
:102FE0000201030004284814101C180010300008C7
:102FF00000000020740000006C010008843000080C
:1030000074000020B41C000088010008DDF4FFFFFC
:1030100000000101010100000000000000000000AC
:103020000000000000000000000101010235010065
:103030000000000000000000000000000000000090
:103040000000000000000000000000000000000080
:103050000000000000000000000000000000000070
:103060000000000000000000000000000000000060
:103070000001020304010203040607080902040612
:043080000800000044
:0400000508000131BD
:00000001FF
